:100000000C947F000C949C000C949C000C949C001D
:100010000C949C000C949C000C949C000C949C00F0
:100020000C949C000C942D030C949C000C940503E0
:100030000C949C000C949C000C949C000C949C00D0
:100040000C949C000C949C000C94CE020C949C008C
:100050000C945E1B0C9475190C949C000C949C00E1
:100060000C949C000C949C000C949C000C949C00A0
:100070000C94071A0C94421A0C949C0007634236A5
:10008000B79BD8A71A39685618AEBAAB558C1D3C29
:10009000B7CC5763BD6DEDFD753EF6177231BF00ED
:1000A0000000803F08000000BE922449123EABAA27
:1000B000AA2ABECDCCCC4C3E00000080BEABAAAA82
:1000C000AA3E00000000BF000000803F00000000CA
:1000D00000084178D3BB4387D1133D190E3CC3BD03
:1000E0004282AD2B3E68EC8276BED98FE1A93E4CB0
:1000F00080EFFFBE01C4FF7F3F000000000011241D
:100100001FBECFEFD0E1DEBFCDBF15E0A0E0B1E074
:10011000E2EEFBE402C005900D92AE3AB107D9F7CA
:1001200017E0AEEAB5E001C01D92AF3CB107E1F7C0
:100130000E94AE150C94EF250C94000010927C00E8
:1001400087E080937A0080917A00806880937A00BB
:1001500080917A00806480937A0080917A0086FD95
:10016000FCCF8091780090917900089590917C0067
:100170008F71907E892B80937C0080917A008065BE
:1001800080937A0080917A0086FDFCCF20917800E0
:1001900040917900942F80E030E0282B392BC90161
:1001A0000895E0E040E050E060E070E0F82FFF717B
:1001B000EF5FF0937C0080917A00806580937A00F5
:1001C00080917A0086FDFCCF8091780020917900A3
:1001D000322F20E090E0822B932BAA2797FDA09549
:1001E000BA2F480F591F6A1F7B1FE53009F7CB0153
:1001F000BA0125E030E040E050E00E946922C901E8
:10020000089590E020E030E040E050E0682F6F710A
:100210009F5F60937C0080917C00806280937C0073
:1002200080917A00806580937A0080917A0086FDC3
:10023000FCCF80917900280F311D411D511D983050
:1002400039F75695479537952795C9010895E0E008
:1002500040E050E060E070E0F82FFF71EF5FF09356
:100260007C0080917A00806580937A0080917A008A
:1002700086FDFCCF8091780020917900322F20E01C
:1002800090E0822B932BAA2797FDA095BA2F480FB9
:10029000591F6A1F7B1FEA3009F7CB01BA012AE018
:1002A00030E040E050E00E946922C90108958823AF
:1002B00049F1813049F485E00E94D100BC016E55BE
:1002C000704084E097E20DC0823011F484E012C0E7
:1002D000833059F40E94D100BC016C51704082E31C
:1002E0009AE00E9442229B010FC0843059F0853071
:1002F00049F486E00E94D100BC016D52704080EB51
:1003000098E2EFCF20E030E0C9010895AC010497F6
:10031000029750F42BB181E090E002C0880F991F42
:100320004A95E2F7282B2BB90895AC010497029760
:1003300058F42BB181E090E002C0880F991F4A95D4
:10034000E2F7809582238BB90895AC010497029758
:1003500050F42BB181E090E002C0880F991F4A95BC
:10036000E2F728272BB9089586B18695869586955C
:10037000809581700895863041F489B18295869583
:1003800086958370809581700895873011F082E0A2
:10039000089583B182958F7080958170089585B19D
:1003A000887F85B98DE0982F9A95F1F793B196954E
:1003B0009695969590959170289A8A95F1F71B9B42
:1003C000946085B1887F85B9299A8DE08A95F1F787
:1003D0001B9B9860289A8DE08A95F1F71B9B926091
:1003E00085B1887F85B92A9A8DE08A95F1F71B9BA4
:1003F0009062289A8DE08A95F1F71B9B906185B1F8
:10040000887F85B985B1866085B98DE08A95F1F7D9
:100410001B9B9064289A8DE08A95F1F71B9B90684E
:10042000892F089588B18F7888B988B1806788B995
:100430008DE08A95F1F7379902C090E801C090E00D
:1004400088B18F7888B988B1806688B98DE08A953F
:10045000F1F7379B906288B18F7888B98DE08A95E3
:10046000F1F7379B9061449A8DE08A95F1F7379BBD
:10047000916088B18F7888B9459A8DE08A95F1F7B7
:10048000379B9260449A8DE08A95F1F7379B98608C
:1004900088B18F7888B9469A8DE08A95F1F7379BB5
:1004A0009064449A8DE08A95F1F7379B9460892F88
:1004B000089580E0089585B5856085BDEEE6F0E09D
:1004C000808181608083E1EBF0E0808186608083C1
:1004D000E0E7F0E08081836080838AEB8093B30063
:1004E0001092AF051092B0051092B1051092B205AE
:1004F0000895AF92BF92CF92DF92EF92FF920F9347
:100500001F93AA2797FDA095BA2FBC01CD010E9489
:10051000221F5B016C0120E030E44CE955E40E94AD
:10052000981D7B018C0120E030E040E85FE30E94F1
:10053000F21E88231CF461E070E024C0C801B701FA
:1005400020E03FEF4FE757E40E94921E1816B4F4E4
:10055000C601B50120E030E040E251E40E94981D60
:100560000E94C21B84EF91E005C0FC013197F1F7B6
:100570006150704061157105C1F707C0C801B7012E
:100580000E94C21BCB010197F1F71F910F91FF90C1
:10059000EF90DF90CF90BF90AF9008951F920F9291
:1005A0000FB60F9211248F939F93AF93BF938FEF4A
:1005B0008093C6008DE386BD8091AF059091B00514
:1005C000A091B105B091B2050196A11DB11D809316
:1005D000AF059093B005A093B105B093B20580919B
:1005E0001D068F5F80931D06843631F48BB190E237
:1005F00089278BB910921D06BF91AF919F918F9162
:100600000F900FBE0F901F9018951F920F920FB66C
:100610000F9211248F939F93AF93BF9382EB80939C
:10062000B2008091B3059091B405A091B505B09149
:10063000B6050196A11DB11D8093B3059093B40535
:10064000A093B505B093B605BF91AF919F918F91DF
:100650000F900FBE0F901F9018951F920F920FB61C
:100660000F9211240F900FBE0F901F9018951092AB
:10067000B9008CE58093B80008951092B90081E12B
:100680008093B80008951092B9008CE58093B8006B
:100690000895982F84EA8093BC008091BC0087FF66
:1006A000FCCF8091B900887F883021F0803111F033
:1006B00081E008959093BB0084E88093BC00809112
:1006C000BC0087FFFCCF9091B900987F983111F45E
:1006D00080E0089580E0903409F081E00895982F3B
:1006E00044EA34E824E94093BC008091BC0087FFD1
:1006F000FCCF8091B900887F883011F0803199F764
:100700009093BB003093BC008091BC0087FFFCCF6E
:100710008091B900887F803211F0883539F42093B8
:10072000BC008091BC0084FDFCCFDDCF08950E9409
:100730004903089584E98093BC008091BC0084FD46
:10074000FCCF08958093BB0084E88093BC00809127
:10075000BC0087FFFCCF8091B90090E0887F883291
:1007600009F091E0892F089584EC8093BC0080917A
:10077000BC0087FFFCCF8091BB00089584E8809384
:10078000BC008091BC0087FFFCCF8091BB00089526
:10079000F8941092B9008CE58093B80080EC0E9428
:1007A000490381E00E94A20381EC0E94490384E88E
:1007B0008093BC008091BC0087FFFCCF9091BB0070
:1007C00084E98093BC008091BC0084FDFCCF7894C8
:1007D000892F0895F8941092B9008CE58093B800A1
:1007E00080EC0E94490382E00E94A20381EC0E94F7
:1007F000490384EC8093BC008091BC0087FFFCCF50
:100800004091BB0084E88093BC008091BC0087FFCE
:10081000FCCF9091BB0084E98093BC008091BC0028
:1008200084FDFCCF7894342F20E0290F311DC901BD
:1008300008951092B9008CE58093B80082E20E947E
:1008400049038BE40E94A20383E20E94490384ECE3
:100850008093BC008091BC0087FFFCCF2091BB003F
:1008600084E88093BC008091BC0087FFFCCF40915E
:10087000BB0084E98093BC008091BC0084FDFCCF68
:1008800030E0245B3040942F80E0280F391FC901ED
:1008900008951092B9008CE58093B80082E20E941E
:1008A000490382E40E94A20383E20E94490384EC8C
:1008B0008093BC008091BC0087FFFCCF8091BB007F
:1008C0008093CC051092CD0584EC8093BC00809180
:1008D000BC0087FFFCCF8091BB008093CE051092B7
:1008E000CF0584EC8093BC008091BC0087FFFCCFD7
:1008F0008091BB008093D0051092D10584EC809349
:10090000BC008091BC0087FFFCCF9091BB0084ECC1
:100910008093BC008091BC0087FFFCCF8091BB001E
:10092000382F20E0290F311D3093D9052093D805A9
:1009300084EC8093BC008091BC0087FFFCCF909139
:10094000BB0084EC8093BC008091BC0087FFFCCF8F
:100950008091BB00382F20E0290F311D3093DB053B
:100960002093DA0584EC8093BC008091BC0087FF63
:10097000FCCF3091BB0084E88093BC008091BC0028
:1009800087FFFCCF2091BB00922F80E0830F911D49
:100990009093DD058093DC0508951092B9008CE5F5
:1009A0008093B80082E00E94490381E40E94A20380
:1009B00083E40E94A20384E98093BC008091BC0080
:1009C00084FDFCCF08951092B9008CE58093B800A7
:1009D00082E00E94490382E40E94A20383E00E9415
:1009E000490384EC8093BC008091BC0087FFFCCF5E
:1009F0009091BB0084E88093BC008091BC0087FF8D
:100A0000FCCF2091BB0084E98093BC008091BC00A6
:100A100084FDFCCF30E0245B3040892F90E0880FCC
:100A2000991F280F391FC9010895909581959F4FEF
:100A3000382F262F280F2093E205262F281B2093DE
:100A4000E3058195861B8093E005361B3093E10515
:100A5000089540918607842F9091870762E070E0A7
:100A60000E9456229B0177FF03C0309521953F4F8E
:100A70008CE390E0821B930B62E070E00E945622B0
:100A8000862F840F8093E2058093E305842F861BD5
:100A90008093E0058093E1050895EE27FF27E81B8A
:100AA000F90B8091C6059091C7052091B807309148
:100AB000B907AC01421B530B9A01440F551F420F5B
:100AC000531F480F591F9093B9078093B8074F36AB
:100AD00051051CF04EE650E006C08FEF4239580732
:100AE00014F442E95FEF9E2F862F8E0F8093E2056C
:100AF000862F8E1B8093E3058E2F8195861B809316
:100B0000E005961B9093E105E0EEF5E08081841B03
:100B1000819385E0E43EF807C9F708951F93182FE5
:100B2000F8941092B9008CE58093B80084EC0E9490
:100B30004903882389F4812F0E94A203882361F44A
:100B40000E94A203882341F484E98093BC00809131
:100B5000BC0084FDFCCF78941F910895EF92FF9222
:100B60000F931F93CF93DF93182F062FF42EE52EAC
:100B7000F8941092B9008CE58093B80084EC0E9440
:100B80004903882321F583E00E94A2038823F9F416
:100B9000812F0E94A2038823D1F4802F0E94A203F8
:100BA0008823A9F48F2D9E2D9C01E9011881812FA6
:100BB0000E94A203882319F421961123B9F784E92E
:100BC0008093BC008091BC0084FDFCCF7894DF91C1
:100BD000CF911F910F91FF90EF9008950F931F9366
:100BE000CF93DF93182F092FF8941092B9008CE55A
:100BF0008093B80084EC0E9449038823A9F4812FD4
:100C0000902F9C01E9011881812F0E94A203882363
:100C100059F421961123B9F784E98093BC0080919F
:100C2000BC0084FDFCCF7894DF91CF911F910F9190
:100C300008958CE090E00E948E05089561E040E008
:100C400051E00E94AE05089545E151E00E94AE05D5
:100C500008958DE090E00E948E050895F89410921A
:100C6000B9008CE58093B80085EC0E944903882385
:100C700011F08EEF089584E88093BC008091BC0051
:100C800087FFFCCF9091BB0084E98093BC008091EA
:100C9000BC0084FDFCCF7894943341F1953380F40B
:100CA0009133E1F0923338F49A3261F19033C1F02C
:100CB000933261F529C09233A9F0933339F514C00A
:100CC0009733D1F0983328F4953391F09633F1F4BB
:100CD00011C0983399F09933C9F412C081E0089596
:100CE00080E0089582E0089583E0089584E0089507
:100CF00085E0089586E0089587E0089588E00895E6
:100D000089E008958AE2089583E208958FEF0895B7
:100D10000F931F93DF93CF9300D000D00F92CDB7E6
:100D2000DEB78C0197FF05C0109501951F4F8DE22E
:100D300001C08BE28983C80164E670E00E945622FC
:100D40009B018CE99FEF689FF001699FF00D789FF0
:100D5000F00D1124E00FF11FCF016AE070E00E9456
:100D60005622205D2A83862F805D8B8386EF9FEF3E
:100D70009C01629FC001639F900D729F900D112492
:100D8000E80FF91FE05DEC831D82CE0101960E9401
:100D9000EE050F900F900F900F900F90CF91DF9175
:100DA0001F910F9108959C018FEF2C3438071CF48C
:100DB00028593E4F05C0253B310514F028563140D7
:100DC000C9010895282F332727FD30958091C80544
:100DD0009091C905280F391F8FEF2C3438071CF468
:100DE00028593E4F05C0253B310514F028563140A7
:100DF0003093C9052093C80508952091CA05309104
:100E0000CB058091C8059091C905281B390B8FEF40
:100E10002C3438071CF428593E4F05C0253B3105BA
:100E200014F028563140C9010895E8ECF0E08081C3
:100E3000807E808388E18093C90086E08093CA0029
:100E40001092CD0080E28093CC00089580E0089558
:100E5000E0E0F0E031966AE070E00E944222CB01CF
:100E600061157105B9F7CF0108950E949E0011B870
:100E700087E084B984E787B98AE38AB912B888E140
:100E800085B988E888B98EE48BB90E94D41A0E948B
:100E9000E51A0E9415070E945B02789484E690E0B0
:100EA0000E9479021092B9008CE58093B80084EC1E
:100EB0000E944903882319F01092AE05089581E03D
:100EC0008093AE050895EF92FF920F931F93DF93E7
:100ED000CF93CDB7DEB72B970FB6F894DEBF0FBE1A
:100EE000CDBFDC01CB01142F022F7E010894E11C41
:100EF000F11CB7014AE050E00E94C9221130D9F438
:100F00001092EA0580E0B701202F30E011C0A82F31
:100F1000B0E0FB01EA0FFB1FE081982F9F5FEE23FB
:100F200009F45DC0A054B94FA20FB31FEC93892FF1
:100F30008A3068F354C01230D9F41092EA0580E088
:100F4000B701202F30E011C0A82FB0E0FB01EA0F5D
:100F5000FB1FE081982F9F5FEE2309F440C0A65449
:100F6000B84FA20FB31FEC93892F8A3068F337C0B4
:100F70001330D1F41092EA0580E0B701202F30E061
:100F800010C0A82FB0E0FB01EA0FFB1FE081982FF3
:100F90009F5FEE2321F1A35CB84FA20FB31FEC9328
:100FA000892F8A3070F31BC01430D9F41092EA05EF
:100FB00080E0B701202F30E010C0A82FB0E0FB0187
:100FC000EA0FFB1FE081982F9F5FEE2341F0A555AC
:100FD000B94FA20FB31FEC93892F8A3070F380931F
:100FE000EA0580E02B960FB6F894DEBF0FBECDBFAA
:100FF000CF91DF911F910F91FF90EF9008954F9245
:101000005F926F927F928F929F92AF92BF92CF9298
:10101000DF92EF92FF920F931F93DF93CF93CDB7A1
:10102000DEB72B970FB6F894DEBF0FBECDBFE82E0C
:10103000D62EC42E3901480110E00CC0612F6C0D72
:101040008D2D47E151E00E94AE058AE090E00E94BC
:1010500079021F5F1E1590F3FF24BB241B8600E05E
:1010600010E02E010894411C511CAC2CAA9469C0BC
:1010700081E0B81631F46F2D6C0D8D2D47E151E0F4
:1010800008C08AE0B81641F46F2D6C0D8D2D45E136
:1010900051E00E94AE0504C084E1B81609F4BB24F7
:1010A00082E390E00E9479020E942E06282F83326C
:1010B000B9F4FF2011F5E3946A2D6E0D8D2D47E1F3
:1010C00051E00E94AE058AE090E00E9479028D2DE9
:1010D0006C2D49E151E00E94AE0581E08B872BC069
:1010E000882359F40115110541F46A2D6E0D8D2DDB
:1010F0000E942406EA94FA941EC0C801F3E0880F07
:10110000991FFA95E1F7000F111F080F191F822F81
:1011100090E0080F191FB2014AE050E00E94C92276
:101120006F2D6C0D8D2DA2010E94AE0504C08EE1C5
:1011300090E00E9479020E942E068F3FC1F7B3947F
:10114000F394FE1408F494CF8B85813019F4109534
:1011500001951F4FC801801691060CF4C4017C0153
:10116000861597050CF47301C7018E010F5F1F4FA1
:10117000B8014AE050E00E94C9228D2D6C2DA801D3
:101180000E94AE05C7012B960FB6F894DEBF0FBEC6
:10119000CDBFCF91DF911F910F91FF90EF90DF9026
:1011A000CF90BF90AF909F908F907F906F905F9007
:1011B0004F9008950F931F93CF93DF930E94E30402
:1011C0009093CB058093CA0586B1869586958695C2
:1011D000809581708093E9058091AE05882321F088
:1011E0000E942E0680933B070E94CF018093EC055E
:1011F0001092EA0510C0802F0E945701E02FF0E006
:10120000EE0FFF1FEE50FA4F918380838091EA0525
:101210008F5F8093EA050091EA05063060F38091C4
:10122000F4059091F50590930E0680930D0680913C
:10123000F6059091F70590930C0680930B0680912C
:10124000F8059091F9059093100680930F06809110
:10125000FC059091FD0590930A068093090688E0AD
:10126000EEEFF5E0DF011D928A95E9F71092EB05AC
:1012700002E0CEE5D1E044C00E9412028093EF0567
:1012800086E00E94BB018093F00587E00E94BB01CD
:10129000382F8093F1050093EA058091EF05482FE0
:1012A00050E022E011C0E22FF0E0CA01022E02C09D
:1012B000959587950A94E2F780FF05C0E250FA4FB2
:1012C00080818F5F80832F5F283068F32093EA0549
:1012D0008091F005882329F08091FE058F5F80932F
:1012E000FE05332329F08091FF058F5F8093FF0572
:1012F000CE010197F1F78091EB058F5F8093EB05AD
:101300008091EB058A3008F4B7CF8091EC05282F47
:10131000269526952093ED0590E09C012170307074
:10132000B3E0220F331FBA95E1F782709070880FF7
:10133000991F282B8091EF058370282B2093EE05B1
:10134000A091FE053091FF05E32FF0E080910206A9
:10135000482F50E080910506682F70E0CF018A0F7A
:10136000911D20910006820F911D20910106820F90
:10137000911D840F951F20910306820F911D2091CE
:101380000406820F911D860F971F069718F488E3B5
:101390009FEF6EC04E0F5F1F460F571F4B3051051A
:1013A0000CF46EC0333010F41092FF0580910506E6
:1013B000833010F41092050680910206833010F4F9
:1013C0001092020680910306833010F410920306F7
:1013D00080910106833010F410920106A091050659
:1013E000B0E06091020670E0E0910106F0E040910B
:1013F000030650E083ED9FEFEC016C9FC0016D9FF1
:10140000900D7C9F900D11242DE230E0E901AC9FFE
:101410009001AD9F300DBC9F300D1124820F931FA2
:1014200026EA3FEFE901EC9F9001ED9F300DFC9F14
:10143000300D1124820F931F2AE530E0429F800176
:10144000439F100D529F100D11246A0F7B1F6E0FCA
:101450007F1F640F751F2091FF05620F711D800FA4
:10146000911F0E945622CB0177FF07C08C549F4FDB
:10147000909307068093060668C0845B9040F8CF7F
:10148000A33010F41092FE0580910406833010F40E
:101490001092040680910006833010F4109200062A
:1014A00080910306833010F41092030680910106A8
:1014B000833010F410920106A0910406B0E0609110
:1014C000000670E0E0910106F0E04091030650E074
:1014D0008DE290E09C01629FC001639F900D729F1E
:1014E000900D112423ED3FEFE901AC9F9001AD9FDA
:1014F000300DBC9F300D1124820F931F2AE530E080
:10150000E901EC9F9001ED9F300DFC9F300D1124FF
:10151000820F931F26EA3FEF429F8001439F100DE9
:10152000529F100D11246A0F7B1F6E0F7F1F640FD7
:10153000751F2091FE05620F711D800F911F0E9483
:101540005622709307066093060680E0DF91CF91E4
:101550001F910F9108956F927F928F929F92AF92F9
:10156000BF92CF92DF92EF92FF920F931F935C0195
:101570003B01CB010E942807A0E0B0E0BC01CD01F7
:101580000E94D41F9B01AC0160E070E080E291E416
:101590000E94EA227B018C01CC24DD24C601B50126
:1015A0000E94D41FA80197010E94981D7B018C0105
:1015B00088249924C401B3010E94D41F9B01AC016B
:1015C000C801B7010E946B1D0E94C21BCB011F9175
:1015D0000F91FF90EF90DF90CF90BF90AF909F90D2
:1015E0008F907F906F90089581E090E06091C505A5
:1015F0000E943E2308950F931F93DF93CF93CDB79F
:10160000DEB72B970FB6F894DEBF0FBECDBF80912B
:101610003B078A3251F4809119068A3231F0809169
:10162000A404813011F41092A30480913B078A3204
:1016300069F4809119068A3249F08091A4048130BE
:1016400029F0882319F081508093A40480913B07EE
:10165000833269F480911906833249F08091A304A2
:10166000882329F08091A4048F5F8093A404909133
:101670003B07892F8150893030F48091A30488235F
:1016800011F49093A3049091A304933009F470C2D1
:10169000943030F4913041F1923008F0CAC010C05B
:1016A000953009F49FC4953008F4DBC2963011F4EC
:1016B0000C941E14983011F00C94E1140C948814BE
:1016C00080EC96E06BE171E00E94C2228AEB97E029
:1016D00060E371E00E94C2228DE397E065E471E06F
:1016E0000E94C2220C94E1148091A404823009F477
:1016F00074C0833009F485C0813009F096C080EC55
:1017000096E060E071E00E94C2228AEB97E060E020
:1017100071E00E94C2228DE397E060E071E00E94D8
:10172000C2226091580770E080E090E041E020E044
:101730000E9463076091590770E080E090E041E00B
:1017400024E00E94630760915A0770E080E090E017
:1017500041E028E00E94630760915B0770E080E051
:1017600090E041E02CE00E94630760915C0770E02C
:1017700080E090E041E020E10E9463076091610712
:1017800070E080E090E042E020E00E94630760911A
:10179000620770E080E090E042E024E00E9463078E
:1017A0006091630770E080E090E042E028E00E94F2
:1017B00063076091640770E080E090E042E02CE015
:1017C0000E9463076091650770E080E090E042E06E
:1017D00020E10E9463070C94E11480EC96E06AE536
:1017E00071E00E94C2228AEB97E060E071E00E9403
:1017F000C2228DE397E060E071E00E94C2220C9467
:10180000E11480EC96E06FE671E00E94C2228AEB60
:1018100097E060E071E00E94C2228DE397E060E013
:1018200071E00E94C2220C94E1149093A4040C94E1
:10183000E1148091A404823009F412C1833009F4C8
:1018400062C1813009F090C180EC96E064E871E0FB
:101850000E94C2228AEB97E069E971E00E94C222ED
:101860008DE397E06EEA71E00E94C2226091060665
:1018700070910706882777FD8095982F41E02BE02F
:101880000E9463076091C0057091C105882777FDAC
:101890008095982F43E02CE00E9463076091C20579
:1018A0007091C305882777FD8095982F43E028E045
:1018B0000E9463078091EF0580FF02C081E301C0B1
:1018C00080E38093BB078091EF0581FF02C081E335
:1018D00001C080E38093BC078091EC0581FF02C0CA
:1018E00081E301C080E38093BD078091EC0580FF18
:1018F00002C081E301C080E38093BE078091E905C7
:10190000813011F481E301C080E38093C1078091AD
:10191000EC0582FF02C081E301C080E380933E07B3
:101920008091EC0583FF02C081E301C080E38093D6
:101930003F078091EC0584FF02C081E301C080E392
:10194000809340078091EC0585FF02C081E301C0D0
:1019500080E3809341078091EC0586FF02C081E31C
:1019600001C080E3809342078091EC0587FF02C0AD
:1019700081E301C080E38093430780913B07181601
:101980001CF480931B0602C010921B066091FE059A
:1019900080911B06861738F470E080E090E041E00B
:1019A00021E10E9463076091FF0580911B06861765
:1019B00038F470E080E090E043E021E10E946307AA
:1019C0006091000680911B06861738F470E080E075
:1019D00090E041E022E10E9463076091010680915E
:1019E0001B06861738F470E080E090E042E022E1C8
:1019F0000E9463076091020680911B06861738F4E7
:101A000070E080E090E043E022E10E946307609193
:101A1000050680911B06861738F470E080E090E0A0
:101A200043E020E10E9463076091040680911B0659
:101A3000861738F470E080E090E041E020E10E94F9
:101A400063076091030680911B06861708F0B9C7EB
:101A500070E080E090E042E020E10E946307B1C7BF
:101A600080EC96E063EC71E00E94C2228AEB97E082
:101A700060E071E00E94C2228DE397E060E071E0D7
:101A80000E94C2226091F4057091F50580E090E01B
:101A900041E029E00E9463076091F6057091F70527
:101AA00080E090E042E02EE00E9463076091F8053C
:101AB0007091F90580E090E043E029E00E9463071F
:101AC0006091FC057091FD0580E090E042E024E02B
:101AD0000E9463076091BB057091BC058091BD05B4
:101AE0009091BE0543E020E10E9463076091B30539
:101AF0007091B4058091B5059091B60541E02EE056
:101B00000E9463075EC780EC96E068ED71E00E947A
:101B1000C2228AEB97E060E071E00E94C2228DE36E
:101B200097E060E071E00E94C2226091110670911E
:101B30001206882777FD8095982F42E021E00E94C9
:101B400063076091E80570E080E090E043E021E009
:101B50000E9463076091C40570E080E090E043E07C
:101B600025E00E9463072DC781E08093A40429C764
:101B70008091A404813021F0823009F06EC033C01E
:101B800080EC96E06DEE71E00E94C2228AEB97E055
:101B900062E072E00E94C2228DE397E067E172E0AA
:101BA0000E94C22280916107282F30E08091620755
:101BB00087FF03C0309521953F4FB901882777FDF6
:101BC0008095982F42E022E00E94630760916207AF
:101BD00070E06F77882777FD8095982F43E022E0AB
:101BE0000E946307EEC680EC96E06CE272E00E9411
:101BF000C2228AEB97E060E071E00E94C2228DE38E
:101C000097E060E071E00E94C22280E090E08E01E7
:101C10000F5F1F4FB80142E050E00E94C92280E0F0
:101C200090E0A801FA01E80FF91F2081222341F07A
:101C3000FC01E654F84F208301968A30910591F714
:101C40006091860770918707882777FD8095982F88
:101C500043E022E00E946307B4C681E08093A404BD
:101C6000B0C68091A404823009F468C0833020F4A7
:101C7000813009F0B3C107C0833009F4D1C084308A
:101C800009F0ACC170C180EC96E061E472E00E94A2
:101C9000C2228AEB97E060E071E00E94C2228DE3ED
:101CA00097E060E071E00E94C2226091630770E0FB
:101CB00080E090E042E020E00E94630760916407CA
:101CC00070E080E090E042E024E00E9463076091D1
:101CD000650770E080E090E042E028E00E94630742
:101CE0006091660770E080E090E042E02CE00E94A6
:101CF00063076091670770E080E090E043E020E0D8
:101D00000E9463076091680770E080E090E043E024
:101D100024E00E9463076091690770E080E090E032
:101D200043E028E00E94630760916A0770E080E06A
:101D300090E043E02CE00E94630743C680EC96E00D
:101D400066E572E00E94C2228AEB97E06BE672E0E1
:101D50000E94C2228DE397E060E872E00E94C222F6
:101D60006091630770E080E090E042E022E00E9432
:101D700063076091640770E080E090E042E027E054
:101D80000E9463076091650770E080E090E042E0A8
:101D90002BE00E9463076091660770E080E090E0AE
:101DA00042E021E10E9463076091670770E080E0F4
:101DB00090E043E022E00E9463076091680770E0D2
:101DC00080E090E043E027E00E94630760916907AC
:101DD00070E080E090E043E02BE00E9463076091B8
:101DE0006A0770E080E090E043E021E10E94630731
:101DF0001092AE0790913B079A3209F4E2C59332F4
:101E000009F4DFC5992309F4DCC519160CF0D9C50E
:101E10008091A4048F5F8093A40490931706D1C58A
:101E200080EC96E065E972E00E94C2228AEB97E0BE
:101E30006AEA72E00E94C2228DE397E060E071E0FE
:101E40000E94C2226091170670E080E090E041E0BD
:101E500020E10E946307E0911706F0E0ED59F84F8A
:101E6000608170E080E090E042E025E00E9463073E
:101E70002091130684E6289F900111248091140676
:101E80004AE0849FC0011124280F80911506280F75
:101E900020931606222341F0622F70E080E090E04C
:101EA00042E02FE00E9463076091130670E080E03B
:101EB00090E043E02FE00E9463076091140670E019
:101EC00080E090E043E020E10E9463076091150606
:101ED00070E080E090E043E021E10E946307209100
:101EE0003B072A30F0F4332727FD309580911906FF
:101EF00090E028173907A9F01092EA050EC0E92FE3
:101F0000F0E0ED5EF94F8081882321F480913B075A
:101F1000808307C09F5F9093EA059091EA05933014
:101F200070F380913B07833209F04BC52091140672
:101F30008091130690E0820F911D892B09F441C511
:101F40001092EA0508C0E82FF0E0ED5EF94F10822C
:101F50008F5F8093EA058091EA058330A0F38EEFCE
:101F600080933B072EC580EC96E06FEB72E00E94F9
:101F7000C2228AEB97E064ED72E00E94C2228DE3F8
:101F800097E069EE72E00E94C2226091160670E04E
:101F900080E090E041E02CE00E946307609117062A
:101FA00070E080E090E042E02CE00E9463078091C6
:101FB00017068093AE07809116068093AF07809135
:101FC0003B07882309F4FDC41092160683E0E3E181
:101FD000F6E0DF011D928A95E9F7F3C481E0809372
:101FE000A404EFC48091A404833009F4E6C18430D2
:101FF00030F4813059F0823009F01CC407C18430BC
:1020000009F49AC2853009F015C455C380EC96E0F6
:102010006EEF72E00E94C2228AEB97E060E071E00E
:102020000E94C2228DE397E060E071E00E94C2222C
:1020300080916C0787FF07C080916C07282F30E0E4
:102040002F77307004C080916C07282F30E0B901E1
:10205000882777FD8095982F42E020E00E94630753
:1020600080916E0787FF07C080916E07282F30E0B0
:102070002F77307004C080916E07282F30E0B901AF
:10208000882777FD8095982F42E024E00E9463071F
:102090008091700787FF07C080917007282F30E07C
:1020A0002F77307004C080917007282F30E0B9017D
:1020B000882777FD8095982F42E028E00E946307EB
:1020C0008091720787FF07C080917207282F30E048
:1020D0002F77307004C080917207282F30E0B9014B
:1020E000882777FD8095982F42E02CE00E946307B7
:1020F00060916D0770E080E090E043E020E00E9496
:10210000630760916F0770E080E090E043E024E0B7
:102110000E9463076091710770E080E090E043E007
:1021200028E00E9463076091730770E080E090E010
:1021300043E02CE00E94630780913B078430A9F1C3
:10214000853074F48130E1F0823024F4882309F47E
:1021500056C037C48230D9F0833009F032C41EC073
:102160008730C1F1883034F4853031F1863009F0A0
:1021700028C429C08830A9F1893009F022C438C0A8
:1021800087EE9FEF69E170E00E9415051AC480E0B8
:1021900090E069E170E00E94150513C489E190E0C8
:1021A00069E170E00E9415050CC487EE9FEF60E0C6
:1021B00070E00E94150505C480E090E060E070E0EA
:1021C0000E941505FEC389E190E060E070E00E9486
:1021D0001505F7C387EE9FEF67EE7FEF0E941505A9
:1021E000F0C380E090E067EE7FEF0E941505E9C341
:1021F00089E190E067EE7FEF0E941505E2C380E081
:1022000090E060E070E00E941505DBC380EC96E092
:1022100063E173E00E94C2228AEB97E068E273E018
:102220000E94C2228DE397E06CE373E00E94C22219
:1022300080918C0787FF07C080918C07282F30E0A2
:102240002F77307004C080918C07282F30E0B901BF
:10225000882777FD8095982F42E024E00E9463074D
:102260008091580787FF07C080915807282F30E0DA
:102270002F77307004C080915807282F30E0B901C3
:10228000882777FD8095982F42E029E00E94630718
:1022900060915C0770E080E090E042E02FE00E94F7
:1022A000630760911A0670E080E090E042E023E16D
:1022B0000E94630780916C0787FF07C080916C07BD
:1022C000282F30E02F77307004C080916C07282FC2
:1022D00030E0B901882777FD8095982F43E025E00D
:1022E0000E94630760916D0770E080E090E043E03A
:1022F0002CE00E9463071092E1051092E205109213
:10230000E30580913B07853059F1863074F48230C3
:10231000D1F0833024F4813009F053C310C08330EE
:10232000B1F0843009F04DC316C0873011F1873009
:10233000D4F0883051F1893009F043C332C082E3D0
:10234000809390073EC384E6809390073AC388EC5D
:102350008093900736C310921A061092E00531C39D
:102360001092E0052EC381E080931A061092E005DA
:1023700028C380911A06882321F082EE8093E0051D
:1023800020C38EE18093E0051CC380911A06882348
:1023900021F084EC8093E00514C38CE38093E00586
:1023A00010C380911A06882321F086EA8093E00505
:1023B00008C38AE58093E00504C380EC96E061E5FC
:1023C00073E00E94C2228AEB97E066E673E00E9407
:1023D000C2228DE397E06CE373E00E94C2228091F9
:1023E000590787FF07C080915907282F30E02F77C2
:1023F000307004C080915907282F30E0B901882738
:1024000077FD8095982F42E025E00E946307609158
:102410005C0770E080E090E042E02CE00E946307FF
:1024200060911A0670E080E090E042E023E10E94B3
:10243000630780916E0787FF07C080916E07282F82
:1024400030E02F77307004C080916E07282F30E085
:10245000B901882777FD8095982F43E025E00E94F9
:10246000630760916F0770E080E090E043E02CE04C
:102470000E9463071092E0051092E2051092E305B6
:1024800080913B07853059F1863074F48230D1F069
:10249000833024F4813009F094C210C08330B1F04D
:1024A000843009F08EC216C0873011F18730D4F025
:1024B000883051F1893009F084C232C082E38093C0
:1024C00090077FC284E6809390077BC288EC80935C
:1024D000900777C210921A061092E10572C210920C
:1024E000E1056FC281E080931A061092E10569C28E
:1024F00080911A06882321F082EE8093E10561C263
:102500008EE18093E1055DC280911A06882321F057
:1025100084EC8093E10555C28CE38093E10551C2C0
:1025200080911A06882321F086EA8093E10549C24A
:102530008AE58093E10545C280EC96E06BE773E0A5
:102540000E94C2228AEB97E066E673E00E94C222F4
:102550008DE397E06CE373E00E94C22280915A07FA
:1025600087FF07C080915A07282F30E02F773070FF
:1025700004C080915A07282F30E0B901882777FDE1
:102580008095982F42E025E00E94630760915C07E8
:1025900070E080E090E042E02CE00E9463076091F0
:1025A0001A0670E080E090E042E023E10E946307B9
:1025B0008091700787FF07C080917007282F30E057
:1025C0002F77307004C080917007282F30E0B90158
:1025D000882777FD8095982F43E025E00E946307C8
:1025E0006091710770E080E090E043E02CE00E9491
:1025F00063071092E0051092E1051092E3058091C7
:102600003B07853059F1863074F48230D1F0833045
:1026100024F4813009F0D5C110C08330B1F084308A
:1026200009F0CFC116C0873011F18730D4F088305F
:1026300051F1893009F0C5C132C082E3809390071F
:10264000C0C184E680939007BCC188EC809390075A
:10265000B8C110921A061092E205B3C11092E205B9
:10266000B0C181E080931A061092E205AAC1809160
:102670001A06882321F082EE8093E205A2C18EE142
:102680008093E2059EC180911A06882321F084EC94
:102690008093E20596C18CE38093E20592C180911C
:1026A0001A06882321F086EA8093E2058AC18AE52A
:1026B0008093E20586C180EC96E060E973E00E94B9
:1026C000C2228AEB97E066E673E00E94C2228DE3A5
:1026D00097E06CE373E00E94C22280915B0787FF62
:1026E00007C080915B07282F30E02F77307004C03F
:1026F00080915B07282F30E0B901882777FD80950E
:10270000982F42E025E00E94630760915C0770E02B
:1027100080E090E042E02CE00E94630760911A069E
:1027200070E080E090E042E023E10E946307809146
:10273000720787FF07C080917207282F30E02F773C
:10274000307004C080917207282F30E0B9018827CB
:1027500077FD8095982F43E025E00E946307609104
:10276000730770E080E090E043E02CE00E94630794
:102770001092E0051092E1051092E20580913B076E
:10278000853059F1863074F48230D1F0833024F4EE
:10279000813009F016C110C08330B1F0843009F0E7
:1027A00010C116C0873011F18730D4F0883051F154
:1027B000893009F006C132C082E38093900701C1DD
:1027C00084E680939007FDC088EC80939007F9C061
:1027D00010921A061092E305F4C01092E305F1C0BE
:1027E00081E080931A061092E305EBC080911A06EF
:1027F000882321F082EE8093E305E3C08EE180938D
:10280000E305DFC080911A06882321F084EC8093D1
:10281000E305D7C08CE38093E305D3C080911A060B
:10282000882321F086EA8093E305CBC08AE5809374
:10283000E305C7C081E08093A404C3C00091A40451
:10284000013021F0023009F05FC04BC080EC96E00F
:1028500065EA73E00E94C2228AEB97E06AEB73E0BC
:102860000E94C2228DE397E06FEC73E00E94C222C7
:1028700060915D0770E080E090E042E025E00E941A
:10288000630760915E0770E080E090E042E029E03D
:102890000E9463076091740770E080E090E043E07D
:1028A00025E00E9463076091750770E080E090E08A
:1028B00043E029E00E9463070093920780913B0761
:1028C000823049F0833051F0813009F07AC083E0E2
:1028D0008093920776C00093910773C0109291077E
:1028E00070C080EC96E064EE73E00E94C2228AEB36
:1028F00097E060E071E00E94C2228DE397E060E023
:1029000071E00E94C2225DC081E08093A40459C09E
:102910008091A404813021F0823009F052C024C09B
:1029200080EC96E069EF73E00E94C2228AEB97E0A8
:102930006EE074E00E94C2228DE397E063E274E0EF
:102940000E94C2226091CE0070E080E090E043E0FF
:1029500025E00E94630790913B07892F81508930C1
:1029600080F59093CE002DC080EC96E069EF73E087
:102970000E94C2228AEB97E068E374E00E94C222C0
:102980008DE397E06DE474E00E94C2226091C5057A
:1029900070E080E090E043E022E00E9463078091D5
:1029A0003B07853071F480911906853051F06091B4
:1029B000C50581E068276093C50581E090E00E942D
:1029C0003E238BEA96E062E674E00E94C222809188
:1029D0005F0790E08E010F5F1F4FB8014AE050E0A3
:1029E0000E94C92280E090E0A801FA01E80FF91FD7
:1029F0002081222341F0FC01E555F94F2083019607
:102A00008A30910591F78091C6059091C7058E0196
:102A10000F5F1F4FB8014AE050E00E94C922F80141
:102A2000AFEAB6E09E01255F3F4F8081882329F001
:102A30008D933196E217F307C1F760918607709185
:102A40008707882777FD8095982F44E028E00E942B
:102A500063078091B7078230C8F0809118068F5FB6
:102A600080931806E091B707E093BF05F0E0DF011F
:102A7000AC5AB84F8C918093C0051092C105EE5AA4
:102A8000F84F80818093C2051092C30560911806AB
:102A900070E080E090E044E02CE00E9463076091E9
:102AA000BF0570E080E090E044E02FE00E94630703
:102AB0001092B7078091A304805D8093BD0680913A
:102AC000A404805D8093BE068091E405882391F084
:102AD00080EC96E060E071E00E94C2228AEB97E011
:102AE00067E774E00E94C2228DE397E06CE874E02F
:102AF0000E94C22280911C06813021F461E040ECEA
:102B000056E011C0823021F461E04AEB57E00BC07F
:102B1000833021F461E04DE357E005C0843029F4AF
:102B200061E04BEA56E00E94AE0580911C068F5F83
:102B300080931C068C3010F010921C0680913B078D
:102B40008093190680E02B960FB6F894DEBF0FBE77
:102B5000CDBFCF91DF911F910F9108952F923F929A
:102B60004F925F926F927F928F929F92AF92BF929D
:102B7000CF92DF92EF92FF920F931F93DF93CF9349
:102B800000D00F92CDB7DEB70E94350781E090E00C
:102B90000E9436231092C505882319F081E08093A6
:102BA000C5050E94E3049093C9058093C8059093DE
:102BB0008507809384072FEF3FEF3B832A83992477
:102BC00019828824CC24CA94DC2CBB24B394B2E0B0
:102BD0006B2EA4E03A2EF3E05F2EE2E32E2E75E09A
:102BE000A72E6BEF762E50E8452E80913C07813062
:102BF000E1F710923C07E090B305F090B405009126
:102C0000B5051091B6050E94DA088091EC0580FFA9
:102C100004C049E150E05B834A8382FF03C0B09265
:102C2000E50502C01092E505882059F48091ED0574
:102C300090E045E0969587954A95E1F7582F5170B9
:102C400059838091EE0581FF07C06AE0698388247B
:102C5000839434E6C32ED12C80916107282F30E075
:102C600030938707209386078091620787FF08C00B
:102C700088279927821B930B909387078093860759
:102C8000809162078F7780935307882321F4809186
:102C900008068093530740918607509187078091DB
:102CA000CA059091CB05840F951F20918407309120
:102CB0008507821B930B9093D6068093D50680914F
:102CC000E5058823B1F12091C8053091C905C901F6
:102CD0008C549F4F9093C9058093C8058C549F4F87
:102CE00034F4245E3D4F3093C9052093C80580918C
:102CF000C8059091C905853B910534F088569140EF
:102D00009093C9058093C805FFEF49335F07ACF086
:102D1000CA018C549F4F9093870780938607853B09
:102D200091055CF0445B50405093870740938607C1
:102D300004C03093C9052093C8058091C6059091C1
:102D4000C7059093B9078093B8070E94FD0690933A
:102D5000C7058093C6050196039720F41092C70516
:102D60001092C6051092E7059091CE009093AA06A6
:102D70009923B1F18091C505882391F096FF03C096
:102D8000B092E7050AC080917407882321F021E8FA
:102D90002093CE0023C01092E7054092CE0020C0C1
:102DA00080917407882311F420E801C020EC809101
:102DB00086079091870797FF03C0909581959F4F55
:102DC00063E070E00E945622262B2093CE00809173
:102DD000AA0680FF03C0B092E70502C01092E70583
:102DE000809186079091870788539F4F31F480E048
:102DF00090E060E070E00E944D054981413059F556
:102E00000E94290580917407882309F4D8C0209175
:102E1000C6053091C705C9010496099728F482E1D7
:102E200090E09B838A83D0C037FF09C07092E00591
:102E30007092E1057092E2057092E305C0C0232B09
:102E400009F4BDC0A092E005A092E105A092E205C0
:102E5000A092E305B4C099819A30F1F5E4E6CE166C
:102E6000D10449F41092E0051092E1051092E205B8
:102E70001092E30527C0C114D10449F422E130E0E7
:102E80003B832A838824CC24CA94DC2C1BC03BE0DF
:102E9000C316D1047CF02091C8053091C9058091FA
:102EA0008407909185072817390721F483E20E944F
:102EB000E20608C080918407909185079093C90528
:102EC0008093C80580E090E063E270E00E944D05C9
:102ED0000894C108D10873C080917407882399F0C1
:102EE0008091C6059091C7054FEF8C3F94075CF029
:102EF00005974CF48A819B818F5F9F4F21F422E1DB
:102F000030E03B832A8320918607309187074FEF7B
:102F10002833340729F480E090E067EE7FEF4DC05E
:102F2000C9010296059728F480E090E062E370E022
:102F300044C0C9014D96CB9730F4C901880F991F41
:102F400060E070E03AC0F90137FF04C0EE27FF27C8
:102F5000E21BF30BE037F1059CF0C90168E070E07B
:102F60000E9456229B01CF0168E070E00E94562229
:102F7000709561957F4F88279927821B930B1DC001
:102F80002D3331053CF0C90166E070E00E94562205
:102F9000CB0111C0B901882777FD8095982F0E9439
:102FA000221F23E333E343E35FE30E94981D0E9463
:102FB000801FDC01CB0168ED7FEF0E944D058A8107
:102FC0009B8118161906A4F480E090E067E370E096
:102FD0000E944D05EA81FB813F9714F410929107FE
:102FE0002A813B81215030403B832A83B092920753
:102FF0004A815B81452B89F450929207B0929107E8
:103000001092E0051092E1051092E2051092E3059E
:103010008FEF9FEF9B838A830DC0EA81FB813997F5
:103020004CF080910D0690910E068931910510F4B7
:10303000892B11F4992071F180917407811181E03D
:10304000982E20929007A092E005A092E105A09210
:10305000E205A092E305B09291072A813B812F30CF
:10306000310524F44FEF5FEF5B834A838091C605FF
:103070009091C70507960F9768F48A819B818F5FAF
:103080009F4F41F4F4E6F093900722E130E03B8358
:103090002A8399248091C405813071F1813020F018
:1030A000823009F097C056C0809160078823F9F0FC
:1030B00080916007807319F0B092E80548C0809154
:1030C000600790E083709070892B19F06092E8059A
:1030D0003EC080916007807C19F05092E80537C0AF
:1030E000809160078C7099F13092E80530C01092A1
:1030F000C4051092E80570C080916007882311F024
:103100006092C4058091E805813021F480916007C8
:10311000807315C0823041F48091600790E0837025
:103120009070892B79F056C0833021F4809160072C
:10313000807C05C0843031F4809160078C708823D6
:1031400009F048C080916007882309F045C0B0921B
:10315000C40542C08091E805823069F0833018F4DC
:103160008130C9F405C0833059F08430A1F40DC01A
:1031700082EE9FEF02C08EE190E060E070E009C057
:1031800080E090E06CEE7FEF04C080E090E064E1CE
:1031900070E00E944D058091E805813021F4809116
:1031A0006007807315C0823041F48091600790E021
:1031B00083709070892B81F00DC0833021F4809151
:1031C0006007807C05C0843039F4809160078C7082
:1031D000882311F01092C4058091ED0581FF06C08F
:1031E00080E090E060E070E00E944D058091AE05C7
:1031F000882311F00E94FB0A8091E905882349F099
:1032000010928C0710928D0710928E0710928F07E4
:1032100027C0E0EEF5E08081853614F034E6308397
:1032200080818C3914F44CE94083808187FF03C08E
:10323000819580688083319655E0E43EF50759F723
:103240008091E00580938C078091E10580938D0744
:103250008091E20580938E078091E30580938F072C
:1032600080915F07823818F4B092E40502C0109292
:10327000E4058091E40581115D9A80913C0780917D
:10328000B3059091B405A091B505B091B6052AE0BB
:1032900030E040E050E0E20EF31E041F151FE81A74
:1032A000F90A0A0B1B0BE092BB05F092BC050093D8
:1032B000BD051093BE0599CC9091C0002091C60029
:1032C000E0916006EF5FEF7180916106E81711F4FD
:1032D00082E008C0892F8871E0936006F0E0E25C2C
:1032E000F94F20838093620608951F920F920FB6C4
:1032F0000F9211248F939F93EF93FF9390915E060B
:1033000080915F06981769F0E0915F06EF5FEF71BB
:10331000E0935F06F0E0E25EF94F80818093C600A3
:1033200005C08091C1008F7D8093C100FF91EF9116
:103330009F918F910F900FBE0F901F9018959C0139
:1033400010925E0610925F0610926006109261065F
:1033500097FF04C082E08093C0003F773093C500A0
:103360002093C40088E98093C10086E08093C20066
:1033700008959091600680916106981719F420E0F5
:1033800031E012C0E0916106EF5FEF71E0936106FA
:10339000F0E0E25CF94F308120916206922F80E0EC
:1033A000AC01430F511D9A01C9010895282F909136
:1033B0005E069F5F9F7180915F069817E1F3E92F8A
:1033C000F0E0E25EF94F208390935E068091C100A9
:1033D00080628093C1000895CF93DF93EC0103C016
:1033E00021960E94D61988818823D1F7DF91CF9149
:1033F0000895CF93DF93EC0102C00E94D619FE011D
:10340000219684918823C9F7DF91CF9108951F9267
:103410000F920FB60F9211242F933F938F939F9388
:10342000AF93BF93EF93FF932091C8003091CE00EC
:103430009091A5069F5F9F718091A606981711F441
:1034400022E011C028719093A506E92FF0E0ED5716
:10345000F94F308390935207A0915207B0E08081DA
:10346000A952B94F8C932093A706FF91EF91BF917A
:10347000AF919F918F913F912F910F900FBE0F9021
:103480001F9018951F920F920FB60F9211248F93D1
:103490009F93EF93FF939091A3068091A4069817B2
:1034A00069F0E091A406EF5FEF71E093A406F0E00D
:1034B000ED59F94F80818093CE0005C08091C900FD
:1034C0008F7D8093C900FF91EF919F918F910F9015
:1034D0000FBE0F901F9018959C011092A30610929A
:1034E000A4061092A5061092A60697FF04C082E0DB
:1034F0008093C8003F773093CD002093CC0088E9BB
:103500008093C90086E08093CA0008959091A50633
:103510008091A606981719F420E031E012C0E091DE
:10352000A606EF5FEF71E093A606F0E0ED57F94FC6
:1035300030812091A706922F80E0AC01430F511DEE
:103540009A01C9010895282F9091A3069F5F9F714A
:103550008091A4069817E1F3E92FF0E0ED59F94FB7
:1035600020839093A3068091C90080628093C90054
:103570000895CF93DF93EC0103C021960E94A31A14
:1035800088818823D1F7DF91CF910895CF93DF937E
:10359000EC0102C00E94A31AFE01219684918823A7
:1035A000C9F7DF91CF910895E0ECF0E08081807E53
:1035B000808388E98093C10086E08093C2001092E6
:1035C000C50084E08093C400089580E090E02FEF70
:1035D000FC01E857F84F2083019680339105C1F72D
:1035E0008FEF80938807109289079FE790938A074F
:1035F00090938B0710928C0710928D0710928E0774
:1036000010928F0784E68093900781E08093910762
:103610001092920790939F079093AA079093AB07FD
:103620009093AC079093AD071092AE071092AF073E
:103630009093B0079093B1079093B2079093B3071C
:103640009093B4079093B5079093B6078093B7070C
:10365000089580E090E02FEFFC01E857F84F2083B9
:10366000019680339105C1F78DE0809395078EE038
:1036700080939607089580E090E02FEFFC01E857D3
:10368000F84F2083019680339105C1F781E0809344
:1036900093078CE0809394078FE78093970780933C
:1036A00098078093990780939A0780939B0780934C
:1036B0009C0780939D0780939E0708951F920F9209
:1036C0000FB60F9211242F938F939F93AF93BF93B5
:1036D000EF93FF932091C6002B3F48F08091A906FD
:1036E000882309F440C05C9A8093B7073CC090914E
:1036F000A906992319F42F3FC9F507C0913029F481
:10370000222319F01092A90631C0E92FF0E0DF0161
:10371000AC5AB84F2C93E857F84F80818A3F28F075
:10372000992319F082E48A95F1F7892F8F5F8093AE
:10373000A906803359F41092A90681E080933C07D2
:103740008091A8068F5F8093A8065C988091A90657
:10375000E82FF0E0E857F84F80818B3F38F4808104
:103760008093C60003C01092A906C1CFFF91EF91CC
:10377000BF91AF919F918F912F910F900FBE0F909E
:103780001F901895EF92FF920F931F937B018C016E
:1037900020E030E040E05FE40E94C21E88238CF00D
:1037A000C801B70120E030E040E05FE40E943A1D2C
:1037B0000E94801F9B01AC01205030404040504887
:1037C00006C0C801B7010E94801F9B01AC01B9016E
:1037D000CA011F910F91FF90EF900895A0E0B0E013
:1037E000E4EFFBE10C948B22DC012B01FA019C91AC
:1037F000923008F439C1EB018881823008F433C17A
:10380000943069F4843009F02FC111969C9111977E
:103810008981981709F428C1A5EAB4E025C184304C
:1038200009F421C18230A9F4923009F01DC19A0136
:10383000AD0188E0EA010990AE01E90109929E011B
:103840008150C1F7E201898111969C91892381837E
:1038500008C1923009F407C112962D903C9013973D
:10386000EB018A819B811496AD90BD90CD90DC9048
:103870001797EC80FD800E811F819101281B390B69
:10388000B90137FF04C066277727621B730B6032CC
:1038900071050CF061C0121613066CF53701480172
:1038A000062E04C096948794779467940A94D2F76E
:1038B00021E030E040E050E004C0220F331F441FFD
:1038C000551F6A95D2F721503040404050402E217C
:1038D0003F2140235123211531054105510521F098
:1038E00021E030E040E050E079018A01E628F72845
:1038F000082919293CC0232BD1F1260E371E35018A
:103900004601062E04C096948794779467940A948F
:10391000D2F721E030E040E050E004C0220F331F36
:10392000441F551F6A95D2F7215030404040504007
:103930002A213B214C215D212115310541055105ED
:1039400021F021E030E040E050E059016A01A62872
:10395000B728C828D9280BC0821593052CF01C0164
:10396000AA24BB24650103C0EE24FF24870111961D
:103970009C91D20111968C91981709F445C0992316
:1039800039F0A80197012A193B094C095D0906C0C5
:10399000A60195012E193F09400B510B57FD08C098
:1039A00011823382228224833583468357831DC04C
:1039B00081E081833382228288279927DC01821B60
:1039C000930BA40BB50B84839583A683B7830DC09B
:1039D000220F331F441F551F24833583468357838B
:1039E00082819381019793838283248135814681EB
:1039F0005781DA01C9010197A109B1098F5F9F4F72
:103A0000AF4FBF4328F30BC0918333822282EA0C6D
:103A1000FB1C0C1D1D1DE482F5820683178383E0C9
:103A20008083248135814681578157FF1AC0C9019F
:103A3000AA2797FDA095BA2F81709070A070B070E2
:103A40005695479537952795822B932BA42BB52B0D
:103A500084839583A683B783828193810196938320
:103A60008283DF0101C0D201CD01CDB7DEB7E2E133
:103A70000C94A722A0E2B0E0E0E4FDE10C949722D0
:103A800069837A838B839C832D833E834F835887FE
:103A9000E9E0EE2EF12CEC0EFD1ECE010196B701F1
:103AA0000E9471218E010F5E1F4FCE010596B80155
:103AB0000E9471218A8991E089278A8BC701B80108
:103AC000AE01475E5F4F0E94EE1B0E949C20A096B5
:103AD000E6E00C94B322A0E2B0E0E1E7FDE10C9453
:103AE000972269837A838B839C832D833E834F83C4
:103AF0005887F9E0EF2EF12CEC0EFD1ECE01019659
:103B0000B7010E9471218E010F5E1F4FCE010596F5
:103B1000B8010E947121C701B801AE01475E5F4F35
:103B20000E94EE1B0E949C20A096E6E00C94B3221B
:103B3000A0E2B0E0EEE9FDE10C948B2269837A8388
:103B40008B839C832D833E834F835887CE010196C0
:103B5000BE01675F7F4F0E947121CE010596BE01B5
:103B60006F5E7F4F0E9471219985923088F089891C
:103B70008230C8F0943019F4823051F404C084309B
:103B800029F4923081F485EA94E0C6C0923049F479
:103B900020E09A858A89981321E02A87CE01099628
:103BA000BBC0823049F420E09A858A89981321E0CD
:103BB0002A8BCE014196B0C02D843E844F84588814
:103BC0006D887E888F88988CEE24FF248701AA2434
:103BD000BB24650140E050E060E070E0E0E0F0E030
:103BE000C10181709070892BE9F0E60CF71C081D6B
:103BF000191D9A01AB012A0D3B1D4C1D5D1D80E076
:103C000090E0A0E0B0E0E614F7040805190520F400
:103C100081E090E0A0E0B0E0BA01A901480F591F8F
:103C20006A1F7B1FAA0CBB1CCC1CDD1C97FE08C0A6
:103C300081E090E0A0E0B0E0A82AB92ACA2ADB2AF5
:103C40003196E032F10549F0660C771C881C991C0E
:103C50005694479437942794C3CFFA85EA892B89E1
:103C60003C898B859C85280F391F2E5F3F4F17C0DD
:103C7000CA0181709070892B61F016950795F794B1
:103C8000E79480E090E0A0E0B0E8E82AF92A0A2B67
:103C90001B2B76956795579547952F5F3F4F77FD7F
:103CA000E7CF0CC0440F551F661F771F17FD4160FB
:103CB000EE0CFF1C001F111F21503040403090E0DF
:103CC000590790E0690790E4790760F32B8F3C8FE8
:103CD000DB01CA018F779070A070B07080349105BD
:103CE000A105B10561F447FD0AC0E114F104010525
:103CF000110529F0405C5F4F6F4F7F4F40781A8E5F
:103D0000FE1711F081E08A8F4D8F5E8F6F8F78A341
:103D100083E0898FCE0149960E949C20A096E2E123
:103D20000C94A722A8E1B0E0E8E9FEE10C94972208
:103D300069837A838B839C832D833E834F8358874B
:103D400089E0E82EF12CEC0EFD1ECE010196B701A4
:103D50000E9471218E010F5E1F4FCE010596B801A2
:103D60000E9471218985823040F08989823028F053
:103D7000C701B8010E94E92101C08FEF6896E6E013
:103D80000C94B322A8E1B0E0E8ECFEE10C94972299
:103D900069837A838B839C832D833E834F835887EB
:103DA00089E0E82EF12CEC0EFD1ECE010196B70144
:103DB0000E9471218E010F5E1F4FCE010596B80142
:103DC0000E9471218985823040F08989823028F0F3
:103DD000C701B8010E94E92101C08FEF6896E6E0B3
:103DE0000C94B322A8E1B0E0E8EFFEE10C94972236
:103DF00069837A838B839C832D833E834F8358878B
:103E000089E0E82EF12CEC0EFD1ECE010196B701E3
:103E10000E9471218E010F5E1F4FCE010596B801E1
:103E20000E9471218985823040F08989823028F092
:103E3000C701B8010E94E92101C081E06896E6E06F
:103E40000C94B322A8E0B0E0E8E2FFE10C949422E5
:103E50009B01AC0183E08983DA01C9018827B7FDA2
:103E600083959927AA27BB27B82E2115310541052F
:103E7000510519F482E089833AC08823A9F02030E3
:103E800080E0380780E0480780E8580729F460E0C0
:103E900070E080E09FEC30C0EE24FF248701E21A3E
:103EA000F30A040B150B02C079018A018EE1C82EBA
:103EB000D12CDC82CB82ED82FE820F831887C80171
:103EC000B7010E944D2001971816190684F4082E98
:103ED00004C0EE0CFF1C001F111F0A94D2F7ED82E4
:103EE000FE820F831887C81AD90ADC82CB82BA8275
:103EF000CE0101960E949C202896E9E00C94B02205
:103F0000ACE0B0E0E6E8FFE10C949B2269837A83A1
:103F10008B839C83CE010196BE016B5F7F4F0E9415
:103F200071218D81823061F1823050F1843021F431
:103F30008E81882351F12EC02F81388537FD20C016
:103F40006E812F3131051CF06623F9F023C08EE11C
:103F500090E0821B930B29853A854B855C8504C0D4
:103F600056954795379527958A95D2F76623B1F0F0
:103F700050954095309521953F4F4F4F5F4F0EC064
:103F800020E030E040E050E009C02FEF3FEF4FEF7E
:103F90005FE704C020E030E040E050E8B901CA012A
:103FA0002C96E2E00C94B722A8E0B0E0EAEDFFE145
:103FB0000C9493227B018C0161157105810591059B
:103FC00019F482E0898360C083E089838EE1C82E82
:103FD000D12CDC82CB82ED82FE820F831887C80150
:103FE000B7010E944D20FC013197F7FF3BC022270B
:103FF00033272E1B3F0B57016801022E04C0D694B5
:10400000C794B794A7940A94D2F740E050E060E0D8
:1040100070E081E090E0A0E0B0E004C0880F991F5C
:10402000AA1FBB1F2A95D2F70197A109B1098E21BA
:104030009F21A023B1230097A105B10521F041E004
:1040400050E060E070E04A295B296C297D294D83AE
:104050005E836F8378878EE190E08E1B9F0B9C833D
:104060008B8312C0309781F00E2E04C0EE0CFF1C23
:10407000001F111F0A94D2F7ED82FE820F8318876A
:10408000CE1ADF0ADC82CB821A82CE0101960E9410
:104090009C202896EAE00C94AF22EF92FF920F93B7
:1040A0001F937B018C0180E0E81680E0F80681E038
:1040B000080780E0180788F48FEFE816F10401057F
:1040C000110531F028F088E090E0A0E0B0E017C0E2
:1040D00080E090E0A0E0B0E012C080E0E81680E070
:1040E000F80680E0080781E0180728F088E190E0F2
:1040F000A0E0B0E004C080E190E0A0E0B0E020E209
:1041000030E040E050E0281B390B4A0B5B0B04C049
:1041100016950795F794E7948A95D2F7F701E3553A
:10412000FB4F8081281B310941095109C9011F91A9
:104130000F91FF90EF900895DF92EF92FF920F930F
:104140001F93FC01E480F58006811781D180808176
:10415000823048F480E090E0A0E1B0E0E82AF92A5B
:104160000A2B1B2BA5C0843009F49FC0823021F498
:10417000EE24FF24870105C0E114F10401051105B7
:1041800019F4E0E0F0E096C0628173819FEF62383D
:1041900079070CF05BC022E83FEF261B370B2A3172
:1041A00031052CF020E030E040E050E02AC0B801BA
:1041B000A701022E04C076956795579547950A94F6
:1041C000D2F781E090E0A0E0B0E004C0880F991F32
:1041D000AA1FBB1F2A95D2F70197A109B1098E2109
:1041E0009F21A023B1230097A105B10521F081E013
:1041F00090E0A0E0B0E09A01AB01282B392B4A2BCC
:104200005B2BDA01C9018F779070A070B070803499
:104210009105A105B10539F427FF09C0205C3F4F86
:104220004F4F5F4F04C0215C3F4F4F4F5F4FE0E067
:10423000F0E02030A0E03A07A0E04A07A0E45A07E7
:1042400010F0E1E0F0E079018A0127C060387105E3
:1042500064F5FB01E158FF4FD801C7018F779070DB
:10426000A070B07080349105A105B10539F4E7FE66
:104270000DC080E490E0A0E0B0E004C08FE390E0E7
:10428000A0E0B0E0E80EF91E0A1F1B1F17FF05C0D3
:1042900016950795F794E794319687E0169507955C
:1042A000F794E7948A95D1F705C0EE24FF2487019F
:1042B000EFEFF0E06E2F679566276795902F9F7759
:1042C000D794DD24D7948E2F8695492F462B582FCF
:1042D0005D29B701CA011F910F91FF90EF90DF9008
:1042E0000895FC01DB01408151812281622F6F77AB
:1042F00070E0221F2227221F9381892F880F822B93
:10430000282F30E0991F9927991F11969C93119798
:1043100021153105A9F5411551056105710511F406
:1043200082E037C082E89FEF13969C938E9312979A
:104330009A01AB0167E0220F331F441F551F6A9596
:10434000D1F783E08C930DC0220F331F441F551FFC
:1043500012968D919C911397019713969C938E932F
:104360001297203080E0380780E0480780E4580743
:1043700058F314962D933D934D935C93179708959E
:104380002F3F310579F4411551056105710519F487
:1043900084E08C93089564FF03C081E08C9312C085
:1043A0001C9210C02F57304013963C932E931297B7
:1043B00083E08C9387E0440F551F661F771F8A9513
:1043C000D1F7706414964D935D936D937C9317971A
:1043D00008951F93DC01FB019C91923008F447C0C3
:1043E0008081823008F443C0943051F411961C91BE
:1043F000843099F58181682F70E0611B71093FC09D
:10440000843021F0923031F48230B9F181818823F7
:1044100089F12DC011961C9111978230F1F08181A4
:104420001817D9F412962D913C911397828193819C
:104430008217930794F028173907BCF014968D91D2
:104440009D910D90BC91A02D24813581468157818D
:10445000281739074A075B0718F4112341F00AC0EF
:1044600082179307A407B50740F4112319F061E000
:1044700070E005C06FEF7FEF02C060E070E0CB013D
:104480001F910895AA1BBB1B51E107C0AA1FBB1FA8
:10449000A617B70710F0A61BB70B881F991F5A95D0
:1044A000A9F780959095BC01CD01089597FB092E41
:1044B00007260AD077FD04D0E5DF06D000201AF4E5
:1044C000709561957F4F0895F6F7909581959F4F70
:1044D0000895A1E21A2EAA1BBB1BFD010DC0AA1F45
:1044E000BB1FEE1FFF1FA217B307E407F50720F05D
:1044F000A21BB30BE40BF50B661F771F881F991FD8
:104500001A9469F760957095809590959B01AC0120
:10451000BD01CF0108952F923F924F925F926F920B
:104520007F928F929F92AF92BF92CF92DF92EF9243
:10453000FF920F931F93CF93DF93CDB7DEB7CA1BC4
:10454000DB0B0FB6F894DEBF0FBECDBF09942A88EF
:10455000398848885F846E847D848C849B84AA8497
:10456000B984C884DF80EE80FD800C811B81AA8124
:10457000B981CE0FD11D0FB6F894DEBF0FBECDBFEF
:10458000ED010895FB01DC0101900D920020E1F79F
:104590000895FB019F01E8944230C4F04532B4F421
:1045A0004A3029F497FB1EF4909581959F4F642F14
:1045B00077270E944222805D8A330CF0895D8193C7
:1045C000CB010097A1F716F45DE251931082C90167
:1045D0000C944C23FA01EE0FFF1F30962105310594
:1045E00099F16115710561F48038BFE39B0749F1CA
:1045F00068949038810561F08038BFEF9B0741F0E7
:10460000992342F5FF3FE1053105210511F1E894B9
:104610000894E795D901AA2329F4AB2FBE2FF85FA0
:10462000D0F310C0FF5F70F4A695E0F7F73950F0B3
:1046300019F0FF3A38F49F779F930CD00F9007FC46
:10464000905808953EF06FC060E070E080E89FE30E
:1046500008954FE79F775F934F933F932F93F6D043
:104660002F913F914F915F9163DA2BC0F999FECF63
:1046700092BD81BDF89A992780B50895262FF999A2
:10468000FECF1FBA92BD81BD20BD0FB6F894FA9A35
:10469000F99A0FBE01960895DC01FC01672F719114
:1046A0007723E1F7329704C07C916D937083629118
:1046B000AE17BF07C8F3089519F40EF02EC07DC0E1
:1046C00032C061D0C8F39638C0F707F80F92E8946B
:1046D0002BE33AEA48EB5FE738D10F920F920F9243
:1046E0004DB75EB70F92F2D0ECE7F0E01FD04F91DC
:1046F0005F91EF91FF91E595EE1FFF1F49F0FE5787
:10470000E0684427EE0F441FFA95E1F74195550BF9
:1047100064D00F9007FE58C0089597F99F6780E80E
:1047200070E060E008959FEF80EC0895DF93CF93F1
:104730001F930F93FF92EF92DF927B018C0168949D
:1047400005C0DA2EEF01FFD0FE01E894A591259176
:10475000359145915591AEF3EF0159D1FE01970185
:10476000A801DA9479F7DF90EF90FF900F911F91F5
:10477000CF91DF91089557FD9058440F551F59F080
:104780005F3F71F04795880F97FB991F61F09F3F3E
:1047900079F087950895121613061406551FF2CF67
:1047A0004695F1DF08C0161617061806991FF1CFB7
:1047B00086957105610508940895E894BB276627DE
:1047C0007727CB0197F908959B01AC0160E070E079
:1047D00080E89FE36FC1A1CFD5C1D5DFE8F399236E
:1047E000D9F3940F511DBBF39150504094F059F000
:1047F000882332F0660F771F881F91505040C1F711
:104800009E3F510544F7880F911D9695879597F91E
:1048100008955F3FACF0983E9CF0BB278695779556
:104820006795B79508F4B1609395C1F7BB0F58F73A
:1048300011F460FFE8CF6F5F7F4F8F4F9F4FE3CF43
:10484000BDCF0EF09FC16FCF689467CF9CDFC8F3D8
:104850009923D1F3C6F3DF93CF931F930F93FF9266
:10486000C92FDD2788232AF02197660F771F881F1D
:10487000DAF720E030E040E85FEB9FE3883920F092
:10488000803E30F021968F7726D9E4EAF0E003C02D
:1048900022D9E1EDF0E04ADF8B01BE01EC01FB2EF5
:1048A0006F5771097595771F880B990BCBDA28E143
:1048B00032E741E35FE347D0AF2D9801AE01FF90AF
:1048C0000F911F91CF91DF91A2D078C1FA01DC0145
:1048D000AA0FBB1F9B01AC01BF5728F42227332727
:1048E000442750781FC0B75188F4AB2F0024469559
:1048F00037952795011CA395D2F3002069F0220F6C
:10490000331F441FB395DAF30DD0B4C8613071057D
:10491000A0E88A07B94630F49B01AC0166277727E7
:1049200088279078309621F0208331834283538307
:10493000089536D128F03BD118F0952309F0EDCE3B
:10494000F2CE11243BCF17DFA0F3959FD1F3950F43
:1049500050E0551F629FF001729FBB27F00DB11D03
:10496000639FAA27F00DB11DAA1F649F6627B00D93
:10497000A11D661F829F2227B00DA11D621F739F7C
:10498000B00DA11D621F839FA00D611D221F749F8A
:104990003327A00D611D231F849F600D211D822FD1
:1049A000762F6A2F11249F5750408AF0E1F0882318
:1049B0004AF0EE0FFF1FBB1F661F771F881F915025
:1049C0005040A9F79E3F510570F0A7CEF7CE5F3F4C
:1049D000ECF3983EDCF3869577956795B795F79558
:1049E000E7959F5FC1F7FE2B880F911D96958795E0
:1049F00097F90895D5D030F0DAD020F031F49F3F08
:104A000011F41EF490CE0EF4E095E7FB86CEE92F6C
:104A1000B2DE80F3BA17620773078407950718F0B0
:104A200071F49EF5CACE0EF4E0950B2EBA2FA02D90
:104A30000B01B90190010C01CA01A0011124FF274B
:104A4000591B99F0593F50F4503E68F11A16F04046
:104A5000A22F232F342F4427585FF3CF4695379545
:104A60002795A795F0405395C9F77EF41F16BA0B0A
:104A7000620B730B840BBAF09150A1F0FF0FBB1FB8
:104A8000661F771F881FC2F70EC0BA0F621F731F01
:104A9000841F48F4879577956795B795F7959E3F5E
:104AA00008F0B3CF9395880F08F09927EE0F9795EC
:104AB000879508950CD082C07AD040F071D030F044
:104AC00021F45F3F19F029CE511178CE2CCE53DE60
:104AD00098F39923C9F35523B1F3951B550BBB27C5
:104AE000AA2762177307840738F09F5F5F4F220F72
:104AF000331F441FAA1FA9F333D00E2E3AF0E0E86B
:104B000030D091505040E695001CCAF729D0FE2FB6
:104B100027D0660F771F881FBB1F26173707480748
:104B2000AB07B0E809F0BB0B802DBF01FF279358FE
:104B30005F4F2AF09E3F510568F0EFCD3FCE5F3FBB
:104B4000ECF3983EDCF3869577956795B795F795E6
:104B50009F5FC9F7880F911D9695879597F90895DE
:104B6000E1E0660F771F881FBB1F6217730784077A
:104B7000BA0720F0621B730B840BBA0BEE1F88F789
:104B8000E09508959F3F31F0915020F487957795F7
:104B90006795B795880F911D9695879597F9089514
:104BA00000240A941616170618060906089500240C
:104BB0000A9412161306140605060895092E039486
:104BC000000C11F4882352F0BB0F40F4BF2B11F4FA
:104BD00060FF04C06F5F7F4F8F4F9F4F0895F89421
:024BE000FFCF05
:104BE20020202020202020202020202020202020C3
:104BF200202020200020005F002D002A2E484D207A
:104C0200203B312E427573203B322E48502020002B
:104C1200332E535020203B342E425020203B352E41
:104C22004D50202000362E4B5020203B372D202087
:104C320020203B382E4254202000312E322E427545
:104C4200732020202020202020202020202000311E
:104C52002E332E4275732020202020202020202059
:104C620020202000322E312E48502020465720206E
:104C720020202020202020200054202020202053EB
:104C8200202020202020202020202020200044201E
:104C92002020202020202020202020202020202012
:104CA200202000322E322E4850202020202020208A
:104CB2002020202020202000746F726469666665BF
:104CC20072656E7A202020202020202000332E3191
:104CD2002E53502020202020202020202020202061
:104CE20020005720202020202020202020202020AB
:104CF20020202020202000452020202020202020AD
:104D0200202020202020202020202000332E322E80
:104D1200535020202020202020202020202020202E
:104D22000020342E312E425020202020202020200E
:104D320020202020200020202020204B616C69624E
:104D420072696572656E20202020003020202020AC
:104D5200312020202032202020203320202020003B
:104D620034202020203520202020362020202037EB
:104D720020202020004B616C696272696572656E49
:104D820020766F6E202020202000416B743A202074
:104D9200202020202053573A20202020202000537A
:104DA200636877656C6C7765727420202020202000
:104DB2002020200067657365747A742066FC722077
:104DC2002020202020202020005072657373206153
:104DD2006E79204B65792020202020202000352E5E
:104DE200312E4D50202046616872656E7465737471
:104DF200202000352E322E4D502054657374204DE4
:104E02006F746F722030200048503A2020202020FA
:104E12005620202020205320202020004D503A20D0
:104E22005620202020202053202020202020202017
:104E320000352E33204D502054657374204D6F740D
:104E42006F722031200048503A2056202020202026
:104E52002053202020202020202000352E342E4DCB
:104E6200502054657374204D6F746F72203220008D
:104E7200352E352E4D502054657374204D6F746F4E
:104E82007220332000362E312E4B5020202020203D
:104E9200207C4B69636B203D310048503A2044200E
:104EA20020204B2020207C442065696E3D32004B3F
:104EB200503A20442020204B2020207C4420617541
:104EC200733D3300362E322E4B50202020202020DE
:104ED200202020202020202000426C7565746F6FF6
:104EE2007468202020202020202020202000416BD8
:104EF20074697620202020202020202020202020BD
:104F0200202000696E633A202020202020202020CB
:104F12002020202020203E00353A207365746D61E8
:104F2200737465722020202020202020006D202014
:104F3200202020202020202020202020202020206F
:104F420020002A2A2A2A2A2A2A2A2A2A2A2A2A2AF3
:104F52002A2A2A2A2A2A0020202020202141636886
:104F620074756E672120202020202000202020211F
:104F7200556E7465727370616E6E756E6721202056
:104F820000C6050001000000000000000000010250
:104F920002030303030404040404040404050505D2
:104FA20005050505050505050505050505060606AC
:104FB200060606060606060606060606060606068F
:104FC200060606060606060606060606060707077C
:104FD200070707070707070707070707070707075F
:104FE200070707070707070707070707070707074F
:104FF200070707070707070707070707070707073F
:10500200070707070707070707070707070808082B
:10501200080808080808080808080808080808080E
:1050220008080808080808080808080808080808FE
:1050320008080808080808080808080808080808EE
:1050420008080808080808080808080808080808DE
:1050520008080808080808080808080808080808CE
:1050620008080808080808080808080808080808BE
:1050720008080808080808080808080808080808AE
:0E5082000808080808080808080808080800B8
:00000001FF
